{"project/contracts/MerchantPay.sol":{"MerchantPay":{"abi":[{"anonymous":false,"inputs":[{"indexed":true,"internalType":"address","name":"payer","type":"address"},{"indexed":true,"internalType":"address","name":"merchant","type":"address"},{"indexed":false,"internalType":"address","name":"token","type":"address"},{"indexed":false,"internalType":"uint256","name":"amount","type":"uint256"},{"indexed":false,"internalType":"string","name":"orderId","type":"string"}],"name":"PaymentReceived","type":"event"},{"inputs":[{"internalType":"address","name":"token","type":"address"},{"internalType":"address","name":"merchant","type":"address"},{"internalType":"uint256","name":"amount","type":"uint256"},{"internalType":"string","name":"orderId","type":"string"}],"name":"pay","outputs":[],"stateMutability":"nonpayable","type":"function"}],"evm":{"bytecode":{"linkReferences":{},"object":"6080604052348015600e575f5ffd5b506104da8061001c5f395ff3fe608060405234801561000f575f5ffd5b5060043610610029575f3560e01c806384a602321461002d575b5f5ffd5b6100476004803603810190610042919061026d565b610049565b005b8473ffffffffffffffffffffffffffffffffffffffff166323b872dd3386866040518463ffffffff1660e01b81526004016100869392919061030f565b6020604051808303815f875af11580156100a2573d5f5f3e3d5ffd5b505050506040513d601f19601f820116820180604052508101906100c69190610379565b610105576040517f08c379a00000000000000000000000000000000000000000000000000000000081526004016100fc906103fe565b60405180910390fd5b8373ffffffffffffffffffffffffffffffffffffffff163373ffffffffffffffffffffffffffffffffffffffff167f57f6b5ae1c70962785ee79f859a9363b398d5f7288ba67f81530bcd8ad72d8f3878686866040516101689493929190610466565b60405180910390a35050505050565b5f5ffd5b5f5ffd5b5f73ffffffffffffffffffffffffffffffffffffffff82169050919050565b5f6101a88261017f565b9050919050565b6101b88161019e565b81146101c2575f5ffd5b50565b5f813590506101d3816101af565b92915050565b5f819050919050565b6101eb816101d9565b81146101f5575f5ffd5b50565b5f81359050610206816101e2565b92915050565b5f5ffd5b5f5ffd5b5f5ffd5b5f5f83601f84011261022d5761022c61020c565b5b8235905067ffffffffffffffff81111561024a57610249610210565b5b60208301915083600182028301111561026657610265610214565b5b9250929050565b5f5f5f5f5f6080868803121561028657610285610177565b5b5f610293888289016101c5565b95505060206102a4888289016101c5565b94505060406102b5888289016101f8565b935050606086013567ffffffffffffffff8111156102d6576102d561017b565b5b6102e288828901610218565b92509250509295509295909350565b6102fa8161019e565b82525050565b610309816101d9565b82525050565b5f6060820190506103225f8301866102f1565b61032f60208301856102f1565b61033c6040830184610300565b949350505050565b5f8115159050919050565b61035881610344565b8114610362575f5ffd5b50565b5f815190506103738161034f565b92915050565b5f6020828403121561038e5761038d610177565b5b5f61039b84828501610365565b91505092915050565b5f82825260208201905092915050565b7f5061796d656e74206661696c65640000000000000000000000000000000000005f82015250565b5f6103e8600e836103a4565b91506103f3826103b4565b602082019050919050565b5f6020820190508181035f830152610415816103dc565b9050919050565b828183375f83830152505050565b5f601f19601f8301169050919050565b5f61044583856103a4565b935061045283858461041c565b61045b8361042a565b840190509392505050565b5f6060820190506104795f8301876102f1565b6104866020830186610300565b818103604083015261049981848661043a565b90509594505050505056fea264697066735822122043b6a6fc3cb328607e5520f89dfcec4115f68aeb9f90680a45790c642021f1c864736f6c634300081c0033","opcodes":"PUSH1 0x80 PUSH1 0x40 MSTORE CALLVALUE DUP1 ISZERO PUSH1 0xE JUMPI PUSH0 PUSH0 REVERT JUMPDEST POP PUSH2 0x4DA DUP1 PUSH2 0x1C PUSH0 CODECOPY PUSH0 RETURN INVALID PUSH1 0x80 PUSH1 0x40 MSTORE CALLVALUE DUP1 ISZERO PUSH2 0xF JUMPI PUSH0 PUSH0 REVERT JUMPDEST POP PUSH1 0x4 CALLDATASIZE LT PUSH2 0x29 JUMPI PUSH0 CALLDATALOAD PUSH1 0xE0 SHR DUP1 PUSH4 0x84A60232 EQ PUSH2 0x2D JUMPI JUMPDEST PUSH0 PUSH0 REVERT JUMPDEST PUSH2 0x47 PUSH1 0x4 DUP1 CALLDATASIZE SUB DUP2 ADD SWAP1 PUSH2 0x42 SWAP2 SWAP1 PUSH2 0x26D JUMP JUMPDEST PUSH2 0x49 JUMP JUMPDEST STOP JUMPDEST DUP5 PUSH20 0xFFFFFFFFFFFFFFFFFFFFFFFFFFFFFFFFFFFFFFFF AND PUSH4 0x23B872DD CALLER DUP7 DUP7 PUSH1 0x40 MLOAD DUP5 PUSH4 0xFFFFFFFF AND PUSH1 0xE0 SHL DUP2 MSTORE PUSH1 0x4 ADD PUSH2 0x86 SWAP4 SWAP3 SWAP2 SWAP1 PUSH2 0x30F JUMP JUMPDEST PUSH1 0x20 PUSH1 0x40 MLOAD DUP1 DUP4 SUB DUP2 PUSH0 DUP8 GAS CALL ISZERO DUP1 ISZERO PUSH2 0xA2 JUMPI RETURNDATASIZE PUSH0 PUSH0 RETURNDATACOPY RETURNDATASIZE PUSH0 REVERT JUMPDEST POP POP POP POP PUSH1 0x40 MLOAD RETURNDATASIZE PUSH1 0x1F NOT PUSH1 0x1F DUP3 ADD AND DUP3 ADD DUP1 PUSH1 0x40 MSTORE POP DUP2 ADD SWAP1 PUSH2 0xC6 SWAP2 SWAP1 PUSH2 0x379 JUMP JUMPDEST PUSH2 0x105 JUMPI PUSH1 0x40 MLOAD PUSH32 0x8C379A000000000000000000000000000000000000000000000000000000000 DUP2 MSTORE PUSH1 0x4 ADD PUSH2 0xFC SWAP1 PUSH2 0x3FE JUMP JUMPDEST PUSH1 0x40 MLOAD DUP1 SWAP2 SUB SWAP1 REVERT JUMPDEST DUP4 PUSH20 0xFFFFFFFFFFFFFFFFFFFFFFFFFFFFFFFFFFFFFFFF AND CALLER PUSH20 0xFFFFFFFFFFFFFFFFFFFFFFFFFFFFFFFFFFFFFFFF AND PUSH32 0x57F6B5AE1C70962785EE79F859A9363B398D5F7288BA67F81530BCD8AD72D8F3 DUP8 DUP7 DUP7 DUP7 PUSH1 0x40 MLOAD PUSH2 0x168 SWAP5 SWAP4 SWAP3 SWAP2 SWAP1 PUSH2 0x466 JUMP JUMPDEST PUSH1 0x40 MLOAD DUP1 SWAP2 SUB SWAP1 LOG3 POP POP POP POP POP JUMP JUMPDEST PUSH0 PUSH0 REVERT JUMPDEST PUSH0 PUSH0 REVERT JUMPDEST PUSH0 PUSH20 0xFFFFFFFFFFFFFFFFFFFFFFFFFFFFFFFFFFFFFFFF DUP3 AND SWAP1 POP SWAP2 SWAP1 POP JUMP JUMPDEST PUSH0 PUSH2 0x1A8 DUP3 PUSH2 0x17F JUMP JUMPDEST SWAP1 POP SWAP2 SWAP1 POP JUMP JUMPDEST PUSH2 0x1B8 DUP2 PUSH2 0x19E JUMP JUMPDEST DUP2 EQ PUSH2 0x1C2 JUMPI PUSH0 PUSH0 REVERT JUMPDEST POP JUMP JUMPDEST PUSH0 DUP2 CALLDATALOAD SWAP1 POP PUSH2 0x1D3 DUP2 PUSH2 0x1AF JUMP JUMPDEST SWAP3 SWAP2 POP POP JUMP JUMPDEST PUSH0 DUP2 SWAP1 POP SWAP2 SWAP1 POP JUMP JUMPDEST PUSH2 0x1EB DUP2 PUSH2 0x1D9 JUMP JUMPDEST DUP2 EQ PUSH2 0x1F5 JUMPI PUSH0 PUSH0 REVERT JUMPDEST POP JUMP JUMPDEST PUSH0 DUP2 CALLDATALOAD SWAP1 POP PUSH2 0x206 DUP2 PUSH2 0x1E2 JUMP JUMPDEST SWAP3 SWAP2 POP POP JUMP JUMPDEST PUSH0 PUSH0 REVERT JUMPDEST PUSH0 PUSH0 REVERT JUMPDEST PUSH0 PUSH0 REVERT JUMPDEST PUSH0 PUSH0 DUP4 PUSH1 0x1F DUP5 ADD SLT PUSH2 0x22D JUMPI PUSH2 0x22C PUSH2 0x20C JUMP JUMPDEST JUMPDEST DUP3 CALLDATALOAD SWAP1 POP PUSH8 0xFFFFFFFFFFFFFFFF DUP2 GT ISZERO PUSH2 0x24A JUMPI PUSH2 0x249 PUSH2 0x210 JUMP JUMPDEST JUMPDEST PUSH1 0x20 DUP4 ADD SWAP2 POP DUP4 PUSH1 0x1 DUP3 MUL DUP4 ADD GT ISZERO PUSH2 0x266 JUMPI PUSH2 0x265 PUSH2 0x214 JUMP JUMPDEST JUMPDEST SWAP3 POP SWAP3 SWAP1 POP JUMP JUMPDEST PUSH0 PUSH0 PUSH0 PUSH0 PUSH0 PUSH1 0x80 DUP7 DUP9 SUB SLT ISZERO PUSH2 0x286 JUMPI PUSH2 0x285 PUSH2 0x177 JUMP JUMPDEST JUMPDEST PUSH0 PUSH2 0x293 DUP9 DUP3 DUP10 ADD PUSH2 0x1C5 JUMP JUMPDEST SWAP6 POP POP PUSH1 0x20 PUSH2 0x2A4 DUP9 DUP3 DUP10 ADD PUSH2 0x1C5 JUMP JUMPDEST SWAP5 POP POP PUSH1 0x40 PUSH2 0x2B5 DUP9 DUP3 DUP10 ADD PUSH2 0x1F8 JUMP JUMPDEST SWAP4 POP POP PUSH1 0x60 DUP7 ADD CALLDATALOAD PUSH8 0xFFFFFFFFFFFFFFFF DUP2 GT ISZERO PUSH2 0x2D6 JUMPI PUSH2 0x2D5 PUSH2 0x17B JUMP JUMPDEST JUMPDEST PUSH2 0x2E2 DUP9 DUP3 DUP10 ADD PUSH2 0x218 JUMP JUMPDEST SWAP3 POP SWAP3 POP POP SWAP3 SWAP6 POP SWAP3 SWAP6 SWAP1 SWAP4 POP JUMP JUMPDEST PUSH2 0x2FA DUP2 PUSH2 0x19E JUMP JUMPDEST DUP3 MSTORE POP POP JUMP JUMPDEST PUSH2 0x309 DUP2 PUSH2 0x1D9 JUMP JUMPDEST DUP3 MSTORE POP POP JUMP JUMPDEST PUSH0 PUSH1 0x60 DUP3 ADD SWAP1 POP PUSH2 0x322 PUSH0 DUP4 ADD DUP7 PUSH2 0x2F1 JUMP JUMPDEST PUSH2 0x32F PUSH1 0x20 DUP4 ADD DUP6 PUSH2 0x2F1 JUMP JUMPDEST PUSH2 0x33C PUSH1 0x40 DUP4 ADD DUP5 PUSH2 0x300 JUMP JUMPDEST SWAP5 SWAP4 POP POP POP POP JUMP JUMPDEST PUSH0 DUP2 ISZERO ISZERO SWAP1 POP SWAP2 SWAP1 POP JUMP JUMPDEST PUSH2 0x358 DUP2 PUSH2 0x344 JUMP JUMPDEST DUP2 EQ PUSH2 0x362 JUMPI PUSH0 PUSH0 REVERT JUMPDEST POP JUMP JUMPDEST PUSH0 DUP2 MLOAD SWAP1 POP PUSH2 0x373 DUP2 PUSH2 0x34F JUMP JUMPDEST SWAP3 SWAP2 POP POP JUMP JUMPDEST PUSH0 PUSH1 0x20 DUP3 DUP5 SUB SLT ISZERO PUSH2 0x38E JUMPI PUSH2 0x38D PUSH2 0x177 JUMP JUMPDEST JUMPDEST PUSH0 PUSH2 0x39B DUP5 DUP3 DUP6 ADD PUSH2 0x365 JUMP JUMPDEST SWAP2 POP POP SWAP3 SWAP2 POP POP JUMP JUMPDEST PUSH0 DUP3 DUP3 MSTORE PUSH1 0x20 DUP3 ADD SWAP1 POP SWAP3 SWAP2 POP POP JUMP JUMPDEST PUSH32 0x5061796D656E74206661696C6564000000000000000000000000000000000000 PUSH0 DUP3 ADD MSTORE POP JUMP JUMPDEST PUSH0 PUSH2 0x3E8 PUSH1 0xE DUP4 PUSH2 0x3A4 JUMP JUMPDEST SWAP2 POP PUSH2 0x3F3 DUP3 PUSH2 0x3B4 JUMP JUMPDEST PUSH1 0x20 DUP3 ADD SWAP1 POP SWAP2 SWAP1 POP JUMP JUMPDEST PUSH0 PUSH1 0x20 DUP3 ADD SWAP1 POP DUP2 DUP2 SUB PUSH0 DUP4 ADD MSTORE PUSH2 0x415 DUP2 PUSH2 0x3DC JUMP JUMPDEST SWAP1 POP SWAP2 SWAP1 POP JUMP JUMPDEST DUP3 DUP2 DUP4 CALLDATACOPY PUSH0 DUP4 DUP4 ADD MSTORE POP POP POP JUMP JUMPDEST PUSH0 PUSH1 0x1F NOT PUSH1 0x1F DUP4 ADD AND SWAP1 POP SWAP2 SWAP1 POP JUMP JUMPDEST PUSH0 PUSH2 0x445 DUP4 DUP6 PUSH2 0x3A4 JUMP JUMPDEST SWAP4 POP PUSH2 0x452 DUP4 DUP6 DUP5 PUSH2 0x41C JUMP JUMPDEST PUSH2 0x45B DUP4 PUSH2 0x42A JUMP JUMPDEST DUP5 ADD SWAP1 POP SWAP4 SWAP3 POP POP POP JUMP JUMPDEST PUSH0 PUSH1 0x60 DUP3 ADD SWAP1 POP PUSH2 0x479 PUSH0 DUP4 ADD DUP8 PUSH2 0x2F1 JUMP JUMPDEST PUSH2 0x486 PUSH1 0x20 DUP4 ADD DUP7 PUSH2 0x300 JUMP JUMPDEST DUP2 DUP2 SUB PUSH1 0x40 DUP4 ADD MSTORE PUSH2 0x499 DUP2 DUP5 DUP7 PUSH2 0x43A JUMP JUMPDEST SWAP1 POP SWAP6 SWAP5 POP POP POP POP POP JUMP INVALID LOG2 PUSH5 0x6970667358 0x22 SLT KECCAK256 NUMBER 0xB6 0xA6 0xFC EXTCODECOPY 0xB3 0x28 PUSH1 0x7E SSTORE KECCAK256 0xF8 SWAP14 0xFC 0xEC COINBASE ISZERO 0xF6 DUP11 0xEB SWAP16 SWAP1 PUSH9 0xA45790C642021F1C8 PUSH5 0x736F6C6343 STOP ADDMOD SHR STOP CALLER "},"methodIdentifiers":{"pay(address,address,uint256,string)":"84a60232"}}}}}