{"project/contracts/GuardianWallet.sol":{"GuardianWallet":{"abi":[{"inputs":[{"internalType":"address","name":"_owner","type":"address"}],"stateMutability":"nonpayable","type":"constructor"},{"anonymous":false,"inputs":[{"indexed":false,"internalType":"address","name":"to","type":"address"},{"indexed":false,"internalType":"uint256","name":"value","type":"uint256"},{"indexed":false,"internalType":"bytes","name":"data","type":"bytes"}],"name":"Executed","type":"event"},{"inputs":[{"internalType":"address","name":"to","type":"address"},{"internalType":"uint256","name":"value","type":"uint256"},{"internalType":"bytes","name":"data","type":"bytes"}],"name":"execute","outputs":[],"stateMutability":"nonpayable","type":"function"},{"inputs":[],"name":"owner","outputs":[{"internalType":"address","name":"","type":"address"}],"stateMutability":"view","type":"function"},{"stateMutability":"payable","type":"receive"}],"evm":{"bytecode":{"linkReferences":{},"object":"608060405234801561000f575f5ffd5b506040516106c93803806106c9833981810160405281019061003191906100d4565b805f5f6101000a81548173ffffffffffffffffffffffffffffffffffffffff021916908373ffffffffffffffffffffffffffffffffffffffff160217905550506100ff565b5f5ffd5b5f73ffffffffffffffffffffffffffffffffffffffff82169050919050565b5f6100a38261007a565b9050919050565b6100b381610099565b81146100bd575f5ffd5b50565b5f815190506100ce816100aa565b92915050565b5f602082840312156100e9576100e8610076565b5b5f6100f6848285016100c0565b91505092915050565b6105bd8061010c5f395ff3fe60806040526004361061002c575f3560e01c80638da5cb5b14610037578063b61d27f61461006157610033565b3661003357005b5f5ffd5b348015610042575f5ffd5b5061004b610089565b604051610058919061026a565b60405180910390f35b34801561006c575f5ffd5b5061008760048036038101906100829190610349565b6100ad565b005b5f5f9054906101000a900473ffffffffffffffffffffffffffffffffffffffff1681565b5f5f9054906101000a900473ffffffffffffffffffffffffffffffffffffffff1673ffffffffffffffffffffffffffffffffffffffff163373ffffffffffffffffffffffffffffffffffffffff161461013b576040517f08c379a000000000000000000000000000000000000000000000000000000000815260040161013290610414565b60405180910390fd5b5f8473ffffffffffffffffffffffffffffffffffffffff1684848460405161016492919061046e565b5f6040518083038185875af1925050503d805f811461019e576040519150601f19603f3d011682016040523d82523d5f602084013e6101a3565b606091505b50509050806101e7576040517f08c379a00000000000000000000000000000000000000000000000000000000081526004016101de906104d0565b60405180910390fd5b7fcaf938de11c367272220bfd1d2baa99ca46665e7bc4d85f00adb51b90fe1fa9f8585858560405161021c9493929190610549565b60405180910390a15050505050565b5f73ffffffffffffffffffffffffffffffffffffffff82169050919050565b5f6102548261022b565b9050919050565b6102648161024a565b82525050565b5f60208201905061027d5f83018461025b565b92915050565b5f5ffd5b5f5ffd5b6102948161024a565b811461029e575f5ffd5b50565b5f813590506102af8161028b565b92915050565b5f819050919050565b6102c7816102b5565b81146102d1575f5ffd5b50565b5f813590506102e2816102be565b92915050565b5f5ffd5b5f5ffd5b5f5ffd5b5f5f83601f840112610309576103086102e8565b5b8235905067ffffffffffffffff811115610326576103256102ec565b5b602083019150836001820283011115610342576103416102f0565b5b9250929050565b5f5f5f5f6060858703121561036157610360610283565b5b5f61036e878288016102a1565b945050602061037f878288016102d4565b935050604085013567ffffffffffffffff8111156103a05761039f610287565b5b6103ac878288016102f4565b925092505092959194509250565b5f82825260208201905092915050565b7f4e6f74206f776e657200000000000000000000000000000000000000000000005f82015250565b5f6103fe6009836103ba565b9150610409826103ca565b602082019050919050565b5f6020820190508181035f83015261042b816103f2565b9050919050565b5f81905092915050565b828183375f83830152505050565b5f6104558385610432565b935061046283858461043c565b82840190509392505050565b5f61047a82848661044a565b91508190509392505050565b7f5472616e73616374696f6e206661696c656400000000000000000000000000005f82015250565b5f6104ba6012836103ba565b91506104c582610486565b602082019050919050565b5f6020820190508181035f8301526104e7816104ae565b9050919050565b6104f7816102b5565b82525050565b5f82825260208201905092915050565b5f601f19601f8301169050919050565b5f61052883856104fd565b935061053583858461043c565b61053e8361050d565b840190509392505050565b5f60608201905061055c5f83018761025b565b61056960208301866104ee565b818103604083015261057c81848661051d565b90509594505050505056fea2646970667358221220f1cb9344d1bba650437389cfad6a9220839f6023bf3098f6ffa7264e1e8f8c5364736f6c634300081c0033","opcodes":"PUSH1 0x80 PUSH1 0x40 MSTORE CALLVALUE DUP1 ISZERO PUSH2 0xF JUMPI PUSH0 PUSH0 REVERT JUMPDEST POP PUSH1 0x40 MLOAD PUSH2 0x6C9 CODESIZE SUB DUP1 PUSH2 0x6C9 DUP4 CODECOPY DUP2 DUP2 ADD PUSH1 0x40 MSTORE DUP2 ADD SWAP1 PUSH2 0x31 SWAP2 SWAP1 PUSH2 0xD4 JUMP JUMPDEST DUP1 PUSH0 PUSH0 PUSH2 0x100 EXP DUP2 SLOAD DUP2 PUSH20 0xFFFFFFFFFFFFFFFFFFFFFFFFFFFFFFFFFFFFFFFF MUL NOT AND SWAP1 DUP4 PUSH20 0xFFFFFFFFFFFFFFFFFFFFFFFFFFFFFFFFFFFFFFFF AND MUL OR SWAP1 SSTORE POP POP PUSH2 0xFF JUMP JUMPDEST PUSH0 PUSH0 REVERT JUMPDEST PUSH0 PUSH20 0xFFFFFFFFFFFFFFFFFFFFFFFFFFFFFFFFFFFFFFFF DUP3 AND SWAP1 POP SWAP2 SWAP1 POP JUMP JUMPDEST PUSH0 PUSH2 0xA3 DUP3 PUSH2 0x7A JUMP JUMPDEST SWAP1 POP SWAP2 SWAP1 POP JUMP JUMPDEST PUSH2 0xB3 DUP2 PUSH2 0x99 JUMP JUMPDEST DUP2 EQ PUSH2 0xBD JUMPI PUSH0 PUSH0 REVERT JUMPDEST POP JUMP JUMPDEST PUSH0 DUP2 MLOAD SWAP1 POP PUSH2 0xCE DUP2 PUSH2 0xAA JUMP JUMPDEST SWAP3 SWAP2 POP POP JUMP JUMPDEST PUSH0 PUSH1 0x20 DUP3 DUP5 SUB SLT ISZERO PUSH2 0xE9 JUMPI PUSH2 0xE8 PUSH2 0x76 JUMP JUMPDEST JUMPDEST PUSH0 PUSH2 0xF6 DUP5 DUP3 DUP6 ADD PUSH2 0xC0 JUMP JUMPDEST SWAP2 POP POP SWAP3 SWAP2 POP POP JUMP JUMPDEST PUSH2 0x5BD DUP1 PUSH2 0x10C PUSH0 CODECOPY PUSH0 RETURN INVALID PUSH1 0x80 PUSH1 0x40 MSTORE PUSH1 0x4 CALLDATASIZE LT PUSH2 0x2C JUMPI PUSH0 CALLDATALOAD PUSH1 0xE0 SHR DUP1 PUSH4 0x8DA5CB5B EQ PUSH2 0x37 JUMPI DUP1 PUSH4 0xB61D27F6 EQ PUSH2 0x61 JUMPI PUSH2 0x33 JUMP JUMPDEST CALLDATASIZE PUSH2 0x33 JUMPI STOP JUMPDEST PUSH0 PUSH0 REVERT JUMPDEST CALLVALUE DUP1 ISZERO PUSH2 0x42 JUMPI PUSH0 PUSH0 REVERT JUMPDEST POP PUSH2 0x4B PUSH2 0x89 JUMP JUMPDEST PUSH1 0x40 MLOAD PUSH2 0x58 SWAP2 SWAP1 PUSH2 0x26A JUMP JUMPDEST PUSH1 0x40 MLOAD DUP1 SWAP2 SUB SWAP1 RETURN JUMPDEST CALLVALUE DUP1 ISZERO PUSH2 0x6C JUMPI PUSH0 PUSH0 REVERT JUMPDEST POP PUSH2 0x87 PUSH1 0x4 DUP1 CALLDATASIZE SUB DUP2 ADD SWAP1 PUSH2 0x82 SWAP2 SWAP1 PUSH2 0x349 JUMP JUMPDEST PUSH2 0xAD JUMP JUMPDEST STOP JUMPDEST PUSH0 PUSH0 SWAP1 SLOAD SWAP1 PUSH2 0x100 EXP SWAP1 DIV PUSH20 0xFFFFFFFFFFFFFFFFFFFFFFFFFFFFFFFFFFFFFFFF AND DUP2 JUMP JUMPDEST PUSH0 PUSH0 SWAP1 SLOAD SWAP1 PUSH2 0x100 EXP SWAP1 DIV PUSH20 0xFFFFFFFFFFFFFFFFFFFFFFFFFFFFFFFFFFFFFFFF AND PUSH20 0xFFFFFFFFFFFFFFFFFFFFFFFFFFFFFFFFFFFFFFFF AND CALLER PUSH20 0xFFFFFFFFFFFFFFFFFFFFFFFFFFFFFFFFFFFFFFFF AND EQ PUSH2 0x13B JUMPI PUSH1 0x40 MLOAD PUSH32 0x8C379A000000000000000000000000000000000000000000000000000000000 DUP2 MSTORE PUSH1 0x4 ADD PUSH2 0x132 SWAP1 PUSH2 0x414 JUMP JUMPDEST PUSH1 0x40 MLOAD DUP1 SWAP2 SUB SWAP1 REVERT JUMPDEST PUSH0 DUP5 PUSH20 0xFFFFFFFFFFFFFFFFFFFFFFFFFFFFFFFFFFFFFFFF AND DUP5 DUP5 DUP5 PUSH1 0x40 MLOAD PUSH2 0x164 SWAP3 SWAP2 SWAP1 PUSH2 0x46E JUMP JUMPDEST PUSH0 PUSH1 0x40 MLOAD DUP1 DUP4 SUB DUP2 DUP6 DUP8 GAS CALL SWAP3 POP POP POP RETURNDATASIZE DUP1 PUSH0 DUP2 EQ PUSH2 0x19E JUMPI PUSH1 0x40 MLOAD SWAP2 POP PUSH1 0x1F NOT PUSH1 0x3F RETURNDATASIZE ADD AND DUP3 ADD PUSH1 0x40 MSTORE RETURNDATASIZE DUP3 MSTORE RETURNDATASIZE PUSH0 PUSH1 0x20 DUP5 ADD RETURNDATACOPY PUSH2 0x1A3 JUMP JUMPDEST PUSH1 0x60 SWAP2 POP JUMPDEST POP POP SWAP1 POP DUP1 PUSH2 0x1E7 JUMPI PUSH1 0x40 MLOAD PUSH32 0x8C379A000000000000000000000000000000000000000000000000000000000 DUP2 MSTORE PUSH1 0x4 ADD PUSH2 0x1DE SWAP1 PUSH2 0x4D0 JUMP JUMPDEST PUSH1 0x40 MLOAD DUP1 SWAP2 SUB SWAP1 REVERT JUMPDEST PUSH32 0xCAF938DE11C367272220BFD1D2BAA99CA46665E7BC4D85F00ADB51B90FE1FA9F DUP6 DUP6 DUP6 DUP6 PUSH1 0x40 MLOAD PUSH2 0x21C SWAP5 SWAP4 SWAP3 SWAP2 SWAP1 PUSH2 0x549 JUMP JUMPDEST PUSH1 0x40 MLOAD DUP1 SWAP2 SUB SWAP1 LOG1 POP POP POP POP POP JUMP JUMPDEST PUSH0 PUSH20 0xFFFFFFFFFFFFFFFFFFFFFFFFFFFFFFFFFFFFFFFF DUP3 AND SWAP1 POP SWAP2 SWAP1 POP JUMP JUMPDEST PUSH0 PUSH2 0x254 DUP3 PUSH2 0x22B JUMP JUMPDEST SWAP1 POP SWAP2 SWAP1 POP JUMP JUMPDEST PUSH2 0x264 DUP2 PUSH2 0x24A JUMP JUMPDEST DUP3 MSTORE POP POP JUMP JUMPDEST PUSH0 PUSH1 0x20 DUP3 ADD SWAP1 POP PUSH2 0x27D PUSH0 DUP4 ADD DUP5 PUSH2 0x25B JUMP JUMPDEST SWAP3 SWAP2 POP POP JUMP JUMPDEST PUSH0 PUSH0 REVERT JUMPDEST PUSH0 PUSH0 REVERT JUMPDEST PUSH2 0x294 DUP2 PUSH2 0x24A JUMP JUMPDEST DUP2 EQ PUSH2 0x29E JUMPI PUSH0 PUSH0 REVERT JUMPDEST POP JUMP JUMPDEST PUSH0 DUP2 CALLDATALOAD SWAP1 POP PUSH2 0x2AF DUP2 PUSH2 0x28B JUMP JUMPDEST SWAP3 SWAP2 POP POP JUMP JUMPDEST PUSH0 DUP2 SWAP1 POP SWAP2 SWAP1 POP JUMP JUMPDEST PUSH2 0x2C7 DUP2 PUSH2 0x2B5 JUMP JUMPDEST DUP2 EQ PUSH2 0x2D1 JUMPI PUSH0 PUSH0 REVERT JUMPDEST POP JUMP JUMPDEST PUSH0 DUP2 CALLDATALOAD SWAP1 POP PUSH2 0x2E2 DUP2 PUSH2 0x2BE JUMP JUMPDEST SWAP3 SWAP2 POP POP JUMP JUMPDEST PUSH0 PUSH0 REVERT JUMPDEST PUSH0 PUSH0 REVERT JUMPDEST PUSH0 PUSH0 REVERT JUMPDEST PUSH0 PUSH0 DUP4 PUSH1 0x1F DUP5 ADD SLT PUSH2 0x309 JUMPI PUSH2 0x308 PUSH2 0x2E8 JUMP JUMPDEST JUMPDEST DUP3 CALLDATALOAD SWAP1 POP PUSH8 0xFFFFFFFFFFFFFFFF DUP2 GT ISZERO PUSH2 0x326 JUMPI PUSH2 0x325 PUSH2 0x2EC JUMP JUMPDEST JUMPDEST PUSH1 0x20 DUP4 ADD SWAP2 POP DUP4 PUSH1 0x1 DUP3 MUL DUP4 ADD GT ISZERO PUSH2 0x342 JUMPI PUSH2 0x341 PUSH2 0x2F0 JUMP JUMPDEST JUMPDEST SWAP3 POP SWAP3 SWAP1 POP JUMP JUMPDEST PUSH0 PUSH0 PUSH0 PUSH0 PUSH1 0x60 DUP6 DUP8 SUB SLT ISZERO PUSH2 0x361 JUMPI PUSH2 0x360 PUSH2 0x283 JUMP JUMPDEST JUMPDEST PUSH0 PUSH2 0x36E DUP8 DUP3 DUP9 ADD PUSH2 0x2A1 JUMP JUMPDEST SWAP5 POP POP PUSH1 0x20 PUSH2 0x37F DUP8 DUP3 DUP9 ADD PUSH2 0x2D4 JUMP JUMPDEST SWAP4 POP POP PUSH1 0x40 DUP6 ADD CALLDATALOAD PUSH8 0xFFFFFFFFFFFFFFFF DUP2 GT ISZERO PUSH2 0x3A0 JUMPI PUSH2 0x39F PUSH2 0x287 JUMP JUMPDEST JUMPDEST PUSH2 0x3AC DUP8 DUP3 DUP9 ADD PUSH2 0x2F4 JUMP JUMPDEST SWAP3 POP SWAP3 POP POP SWAP3 SWAP6 SWAP2 SWAP5 POP SWAP3 POP JUMP JUMPDEST PUSH0 DUP3 DUP3 MSTORE PUSH1 0x20 DUP3 ADD SWAP1 POP SWAP3 SWAP2 POP POP JUMP JUMPDEST PUSH32 0x4E6F74206F776E65720000000000000000000000000000000000000000000000 PUSH0 DUP3 ADD MSTORE POP JUMP JUMPDEST PUSH0 PUSH2 0x3FE PUSH1 0x9 DUP4 PUSH2 0x3BA JUMP JUMPDEST SWAP2 POP PUSH2 0x409 DUP3 PUSH2 0x3CA JUMP JUMPDEST PUSH1 0x20 DUP3 ADD SWAP1 POP SWAP2 SWAP1 POP JUMP JUMPDEST PUSH0 PUSH1 0x20 DUP3 ADD SWAP1 POP DUP2 DUP2 SUB PUSH0 DUP4 ADD MSTORE PUSH2 0x42B DUP2 PUSH2 0x3F2 JUMP JUMPDEST SWAP1 POP SWAP2 SWAP1 POP JUMP JUMPDEST PUSH0 DUP2 SWAP1 POP SWAP3 SWAP2 POP POP JUMP JUMPDEST DUP3 DUP2 DUP4 CALLDATACOPY PUSH0 DUP4 DUP4 ADD MSTORE POP POP POP JUMP JUMPDEST PUSH0 PUSH2 0x455 DUP4 DUP6 PUSH2 0x432 JUMP JUMPDEST SWAP4 POP PUSH2 0x462 DUP4 DUP6 DUP5 PUSH2 0x43C JUMP JUMPDEST DUP3 DUP5 ADD SWAP1 POP SWAP4 SWAP3 POP POP POP JUMP JUMPDEST PUSH0 PUSH2 0x47A DUP3 DUP5 DUP7 PUSH2 0x44A JUMP JUMPDEST SWAP2 POP DUP2 SWAP1 POP SWAP4 SWAP3 POP POP POP JUMP JUMPDEST PUSH32 0x5472616E73616374696F6E206661696C65640000000000000000000000000000 PUSH0 DUP3 ADD MSTORE POP JUMP JUMPDEST PUSH0 PUSH2 0x4BA PUSH1 0x12 DUP4 PUSH2 0x3BA JUMP JUMPDEST SWAP2 POP PUSH2 0x4C5 DUP3 PUSH2 0x486 JUMP JUMPDEST PUSH1 0x20 DUP3 ADD SWAP1 POP SWAP2 SWAP1 POP JUMP JUMPDEST PUSH0 PUSH1 0x20 DUP3 ADD SWAP1 POP DUP2 DUP2 SUB PUSH0 DUP4 ADD MSTORE PUSH2 0x4E7 DUP2 PUSH2 0x4AE JUMP JUMPDEST SWAP1 POP SWAP2 SWAP1 POP JUMP JUMPDEST PUSH2 0x4F7 DUP2 PUSH2 0x2B5 JUMP JUMPDEST DUP3 MSTORE POP POP JUMP JUMPDEST PUSH0 DUP3 DUP3 MSTORE PUSH1 0x20 DUP3 ADD SWAP1 POP SWAP3 SWAP2 POP POP JUMP JUMPDEST PUSH0 PUSH1 0x1F NOT PUSH1 0x1F DUP4 ADD AND SWAP1 POP SWAP2 SWAP1 POP JUMP JUMPDEST PUSH0 PUSH2 0x528 DUP4 DUP6 PUSH2 0x4FD JUMP JUMPDEST SWAP4 POP PUSH2 0x535 DUP4 DUP6 DUP5 PUSH2 0x43C JUMP JUMPDEST PUSH2 0x53E DUP4 PUSH2 0x50D JUMP JUMPDEST DUP5 ADD SWAP1 POP SWAP4 SWAP3 POP POP POP JUMP JUMPDEST PUSH0 PUSH1 0x60 DUP3 ADD SWAP1 POP PUSH2 0x55C PUSH0 DUP4 ADD DUP8 PUSH2 0x25B JUMP JUMPDEST PUSH2 0x569 PUSH1 0x20 DUP4 ADD DUP7 PUSH2 0x4EE JUMP JUMPDEST DUP2 DUP2 SUB PUSH1 0x40 DUP4 ADD MSTORE PUSH2 0x57C DUP2 DUP5 DUP7 PUSH2 0x51D JUMP JUMPDEST SWAP1 POP SWAP6 SWAP5 POP POP POP POP POP JUMP INVALID LOG2 PUSH5 0x6970667358 0x22 SLT KECCAK256 CALL 0xCB SWAP4 PREVRANDAO 0xD1 0xBB 0xA6 POP NUMBER PUSH20 0x89CFAD6A9220839F6023BF3098F6FFA7264E1E8F DUP13 MSTORE8 PUSH5 0x736F6C6343 STOP ADDMOD SHR STOP CALLER "},"methodIdentifiers":{"execute(address,uint256,bytes)":"b61d27f6","owner()":"8da5cb5b"}}}}}