{
  "_format": "hh3-artifact-1",
  "contractName": "MerchantPay",
  "sourceName": "contracts/MerchantPay.sol",
  "abi": [
    {
      "anonymous": false,
      "inputs": [
        {
          "indexed": true,
          "internalType": "address",
          "name": "payer",
          "type": "address"
        },
        {
          "indexed": true,
          "internalType": "address",
          "name": "merchant",
          "type": "address"
        },
        {
          "indexed": false,
          "internalType": "address",
          "name": "token",
          "type": "address"
        },
        {
          "indexed": false,
          "internalType": "uint256",
          "name": "amount",
          "type": "uint256"
        },
        {
          "indexed": false,
          "internalType": "string",
          "name": "orderId",
          "type": "string"
        }
      ],
      "name": "PaymentReceived",
      "type": "event"
    },
    {
      "inputs": [
        {
          "internalType": "address",
          "name": "token",
          "type": "address"
        },
        {
          "internalType": "address",
          "name": "merchant",
          "type": "address"
        },
        {
          "internalType": "uint256",
          "name": "amount",
          "type": "uint256"
        },
        {
          "internalType": "string",
          "name": "orderId",
          "type": "string"
        }
      ],
      "name": "pay",
      "outputs": [],
      "stateMutability": "nonpayable",
      "type": "function"
    }
  ],
  "bytecode": "0x6080604052348015600e575f5ffd5b506104da8061001c5f395ff3fe608060405234801561000f575f5ffd5b5060043610610029575f3560e01c806384a602321461002d575b5f5ffd5b6100476004803603810190610042919061026d565b610049565b005b8473ffffffffffffffffffffffffffffffffffffffff166323b872dd3386866040518463ffffffff1660e01b81526004016100869392919061030f565b6020604051808303815f875af11580156100a2573d5f5f3e3d5ffd5b505050506040513d601f19601f820116820180604052508101906100c69190610379565b610105576040517f08c379a00000000000000000000000000000000000000000000000000000000081526004016100fc906103fe565b60405180910390fd5b8373ffffffffffffffffffffffffffffffffffffffff163373ffffffffffffffffffffffffffffffffffffffff167f57f6b5ae1c70962785ee79f859a9363b398d5f7288ba67f81530bcd8ad72d8f3878686866040516101689493929190610466565b60405180910390a35050505050565b5f5ffd5b5f5ffd5b5f73ffffffffffffffffffffffffffffffffffffffff82169050919050565b5f6101a88261017f565b9050919050565b6101b88161019e565b81146101c2575f5ffd5b50565b5f813590506101d3816101af565b92915050565b5f819050919050565b6101eb816101d9565b81146101f5575f5ffd5b50565b5f81359050610206816101e2565b92915050565b5f5ffd5b5f5ffd5b5f5ffd5b5f5f83601f84011261022d5761022c61020c565b5b8235905067ffffffffffffffff81111561024a57610249610210565b5b60208301915083600182028301111561026657610265610214565b5b9250929050565b5f5f5f5f5f6080868803121561028657610285610177565b5b5f610293888289016101c5565b95505060206102a4888289016101c5565b94505060406102b5888289016101f8565b935050606086013567ffffffffffffffff8111156102d6576102d561017b565b5b6102e288828901610218565b92509250509295509295909350565b6102fa8161019e565b82525050565b610309816101d9565b82525050565b5f6060820190506103225f8301866102f1565b61032f60208301856102f1565b61033c6040830184610300565b949350505050565b5f8115159050919050565b61035881610344565b8114610362575f5ffd5b50565b5f815190506103738161034f565b92915050565b5f6020828403121561038e5761038d610177565b5b5f61039b84828501610365565b91505092915050565b5f82825260208201905092915050565b7f5061796d656e74206661696c65640000000000000000000000000000000000005f82015250565b5f6103e8600e836103a4565b91506103f3826103b4565b602082019050919050565b5f6020820190508181035f830152610415816103dc565b9050919050565b828183375f83830152505050565b5f601f19601f8301169050919050565b5f61044583856103a4565b935061045283858461041c565b61045b8361042a565b840190509392505050565b5f6060820190506104795f8301876102f1565b6104866020830186610300565b818103604083015261049981848661043a565b90509594505050505056fea264697066735822122043b6a6fc3cb328607e5520f89dfcec4115f68aeb9f90680a45790c642021f1c864736f6c634300081c0033",
  "linkReferences": {},
  "deployedLinkReferences": {},
  "immutableReferences": {},
  "inputSourceName": "project/contracts/MerchantPay.sol",
  "buildInfoId": "solc-0_8_28-d257800bc02fc66f7c3130f717932fee6f243a6a"
}